:0600000002005602013867
:03000B0002016887
:0300130002013BAC
:03001B00020129B6
:0100230032AA
:03002B0002016B64
:01003300329A
:01003B003292
:01004300328A
:03004B0002013E71
:0300530002018027
:0300AF000200B29A
:0500B2001200B780FE02
:0D00B7007581201201119006C975F08012AC
:0600C4000171120181121E
:0900CA0000FF9006D075F08012D1
:0E00D30000F6E4C0E07582011200F015819085
:0800E10006E175F0801200F643
:0200E90080FE97
:0100EB0022F2
:0100EC0022F1
:0300ED000280008E
:0300F00002800388
:0300F30002800682
:0300F6000280097C
:0300F90002800C76
:0300FC0002800F70
:0300FF000280126A
:0301020002801563
:030105000280185D
:0301080002801B57
:03010B0002801E51
:03010E000280214B
:0301110002802445
:030114000280273F
:0301170002802A39
:03011A0002802D33
:03011D000280302D
:0301200002803327
:0301230002803621
:030126000280391B
:0301290002803C15
:03012C0002803F0F
:03012F0002804209
:0301320002804503
:03013500028048FD
:0301380002804BF7
:03013B0002804EF1
:03013E00028051EB
:03014100028054E5
:03014400028057DF
:0301470002805AD9
:03014A0002805DD3
:03014D00028060CD
:03015000028063C7
:03015300028066C1
:03015600028069BB
:0301590002806CB5
:03015C0002806FAF
:03015F00028072A9
:03016200028075A3
:030165000280789D
:0301680002807B97
:03016B0002807E91
:03016E000280818B
:0301710002808485
:030174000280877F
:0301770002808A79
:03017A0002808D73
:03017D000280906D
:01018000324C
:0706C90030302E39373000FC
:0E06D0002D2020416B53656E4D61696E202018
:0306DE002D2000CC
:0E06E1007775726465207665726C617373655F
:0306EF006E20007A
:0A018100C01885811805810581056D
:07018B008112038212035BE5
:0C019200A8180886820886830886F012F0
:06019E0003D21200FFA8CD
:0B01A400180886820886830886F01287
:0801AF0000F680DF851881D005
:0201B70018220C
:0A01B900C018858118C082C083C001
:0B01C300F0E581240BF5817D007E003B
:0C01CE00E51824FCF8C3ED96EE648008F0
:0C01DA0086F063F08095F0400302034CB7
:0C01E600C005C0061200FFD006D005E5E1
:0C01F200182404F874012DF6E43E08F611
:0C01FE00E5182404F88682088683C005FA
:0C020A00C0061201449006F275F080124C
:0E02160000F6900003120516AD82AE8315812E
:0C0224001581A81808ED26FBEE0836FC3A
:0E0230000886028B828C838AF012061AFB7AF3
:0D023E00008B828A83C005C0061201449027
:0D024B0006F575F0801200F6D006D005A86B
:0A0258001808E5182406F9ED26F752
:0C026200EE083609F70809E6F7E5182455
:0C026E0006F8E5182409F9740126F7E4ED
:0C027A00083609F70809E6F7E518240922
:0E028600F886820886830886F012061AFCA30A
:0C02940012061AFA8C828A83120144E5DB
:0C02A000182409F886820886830886F07E
:0E02AC0012061AFAA312061AFB8A828B83121C
:0E02BA0005B4AA82AB83ACF0FFC002C003C043
:0E02C80004C00790A7F075F03A7441120403C9
:0E02D600AA82AB83ACF0FFE58124FCF581C069
:0E02E40002C003C004C007740AC0E0758200A7
:0E02F2001200F01581D007D004D003D0028A8C
:0D030000828B838CF0EF1205C0120135E5F1
:0C030D00182409F886820886830886F010
:0903190012061AFAA312061AE5F5
:0C032200182406F886820886830886F0FE
:0E032E0012061AFBC0028B821201081581E52F
:0C033C00182404F886020886038A058B4A
:04034800060201CEDA
:0C034C007582651203937582018518818B
:03035800D0182298
:0E035B007449C0E075820012010815817444D7
:0E036900C0E075820112010815817449C0E0E0
:09037700758202120108158122B1
:01038000225A
:010381002259
:0306F20020730072
:0306F5002077006B
:0E03820075985075BA0375AAD9D2DF438780EB
:03039000D29922DD
:02039300AA823C
:0503950010990280FB3D
:03039A008A99221B
:06039D00AA82AB83ACF064
:0E03A3008A828B838CF012061AFD60180ABA4B
:0303B10000010B3D
:0E03B4008D82C002C003C004120393D004D097
:0503C20003D00280DC05
:0103C7002213
:0503C80010980280FB0B
:0503CD00AA998A8222BA
:0603D200AA82AB83ACF02F
:0E03D800C002C003C0041203C8AD82D004D01E
:0E03E60003D0028A828B838CF0ED1204FDA3FB
:0B03F400AA82AB83ED6007BD0A012266
:0303FF00BD0DD65B
:0104020022D7
:060403001204A6BC000378
:030409000205ECFD
:08040C00EF60FA30D502B2D115
:08041400E583B4FF03020602B8
:08041C00E582B4FF03020602B1
:0B042400258340072482400B0205ECFA
:08042F002483145003020602AD
:0E043700F582EA8DF0A4A8F0EA8EF0A428F871
:0E044500E435F0F9EB8DF0A428E935F0F9E488
:0E04530033CA8FF0A429F9EA35F0FAEBF88EDF
:0E046100F0A429F9EA35F0FAE433FBEC8DF053
:0E046F00A429F9EA35F0FAE43BFBE88FF0A48B
:0E047D002AFAEB35F0FBE433CCFD8EF0A42A16
:0E048B00FAEB35F0FBE43CFCED8FF0A42BFB0C
:0A049900EC35F0FC20E7031204D458
:0304A3000205CB84
:0D04A600AA82AB83A2F73392D16002D2F795
:0E04B300F582ACF0E58124F9F8E6FD08E6FEDE
:0E04C1000886F008E6A2F73392D56002D2F763
:0504CF00F583AFF022EF
:06008500E478FFF6D8FD4F
:0204D4007804AA
:0E04D600EC700DC9CACBFCE58224F8F582D883
:0204E400F12203
:0204E60078207C
:0E04E80020E7111582C3E933F9EA33FAEB334A
:0604F600FBEC33FCD8EC26
:0104FC0022DD
:080063007900E94400601B7AFA
:05006B00009006F8788A
:030070009675A0E2
:0A00730000E493F2A308B8000205B0
:08007D00A0D9F4DAF275A0FF2E
:0E04FD0020F71030F6118883A88220F507F64C
:05050B00A883758300C8
:0105100022C8
:03051100F280F77E
:02051400F022D3
:0A051600C018858118C082C083E57B
:0A052000812407F581AA180AA81823
:0C052A00080808A602087600087640E5E4
:0A0536001824FCFA7B007C40E51855
:0C0540002406F8A9180909098782098718
:0E054C00830987F012061AFD8A828B838CF0D9
:0C055A0012061AFE8DF0A4F608A6F0E5CB
:0C05660018240604F886070ABA00010BEE
:0E0572008A828B838CF012061A8DF0A4FDA9EC
:0C05800018090909740127FAE40937FB87
:0E058C000987048A828B838CF012061AFA8A81
:0C059A00F0EEA42D2FF6E5182406F886DC
:0C05A600020886038A828B83851881D0AE
:0205B20018220D
:08008B007800E84400600A79E6
:030093000075A055
:0600960000E4F309D8FCB0
:08009C007896E84400600C793D
:0B00A40001900000E4F0A3D8FCD9FAA2
:0C05B400E4AC83AB82FAF9748E02063FBF
:0B05C0007F8E12064FF58385F082222B
:0605CB00B98003EA13B33E
:0E05D1004010EA2401FAE43BFBE43CFC500439
:0405DF007C80058295
:0905E300BC000EBB000BBA0008BD
:0805EC00E4F5F0F583F582222D
:0E05F400A2D1E582138CF092F78B838A8222CB
:0D060200E4F583F58275F080F4A2D1132297
:0B060F00E4F583F58275F0C0747F22D3
:0300560075811899
:0A005900120649E58260030200B2BE
:0E061A0020F71430F6148883A88220F507E636
:06062800A8837583002287
:03062E00E280F770
:03063100E493222D
:02063400E022C2
:09063600FCABF0AA83A982749EBA
:02063F00C2D126
:08064100F5821204D40205CB7E
:040649007582002294
:02064D007F9E8E
:09064F001206B730D1030205ECDC
:0E065800C3EF9582500974FFF5F0F583F5822B
:010666002271
:05066700790012067489
:08066C0089828A838BF0EC22E5
:090674006040F82582500274FF79
:0E067D00F582E824F8501ECCCBCAF9E4CC2458
:0E068B00F85014CBCAF9E4CB24F8500BCAF98E
:09069900E4CA24F85003790022A0
:0506A20024086010F8BF
:0E06A700C3EC13FCEB13FBEA13FAE913F9D8CA
:0106B500F153
:0106B6002221
:0D06B700AA82AB83A2F73392D16002D2F782
:0506C400F582ACF022FC
:00000001FF
