:0600000002005602013867
:03000B0002016887
:0300130002013BAC
:03001B00020129B6
:0100230032AA
:03002B0002016B64
:01003300329A
:01003B003292
:01004300328A
:03004B0002013E71
:0300530002018027
:0300AF000200B29A
:0500B2001200B780FE02
:0D00B700758120120111900D8575F08012E9
:0600C4000171120181121E
:0900CA0000FF900D8C75F080120E
:0E00D30000F6E4C0E07582011200F015819085
:0800E1000D9D75F0801200F680
:0200E90080FE97
:0100EB0022F2
:0100EC0022F1
:0300ED000280008E
:0300F00002800388
:0300F30002800682
:0300F6000280097C
:0300F90002800C76
:0300FC0002800F70
:0300FF000280126A
:0301020002801563
:030105000280185D
:0301080002801B57
:03010B0002801E51
:03010E000280214B
:0301110002802445
:030114000280273F
:0301170002802A39
:03011A0002802D33
:03011D000280302D
:0301200002803327
:0301230002803621
:030126000280391B
:0301290002803C15
:03012C0002803F0F
:03012F0002804209
:0301320002804503
:03013500028048FD
:0301380002804BF7
:03013B0002804EF1
:03013E00028051EB
:03014100028054E5
:03014400028057DF
:0301470002805AD9
:03014A0002805DD3
:03014D00028060CD
:03015000028063C7
:03015300028066C1
:03015600028069BB
:0301590002806CB5
:03015C0002806FAF
:03015F00028072A9
:03016200028075A3
:030165000280789D
:0301680002807B97
:03016B0002807E91
:03016E000280818B
:0301710002808485
:030174000280877F
:0301770002808A79
:03017A0002808D73
:03017D000280906D
:01018000324C
:070D850030302E3937300039
:0E0D8C002D2020416B53656E4D61696E202055
:030D9A002D200009
:0E0D9D007775726465207665726C617373659C
:030DAB006E2000B7
:0A018100C018E581F518240AF58185
:0C018B00E5182405F8E4F608F61208F068
:070197001208C91200FF90DD
:08019E000DAE75F0801200F6B1
:0A01A600A81808087600A818080839
:0C01B000087600E5182409F8E4F608F6CB
:0E01BC007C007D00C004C005120936AA82D066
:0A01CA0005D004A81808A602A81822
:0601D40008B6730280036F
:0301DA000205A07B
:0E01DD00758261C004C0051209011200FF9076
:0D01EB000DC075F0801200F6D005D004E5BF
:0601F800182404F8760053
:0A01FE00A8180808E660030203D108
:0E020800C004C005120936AF82D005D004A88C
:0A0216001808A607BF65030203D114
:0C022000C004C0051200FFA81808868268
:0C022C001200F3D005D004A81808C3E6A7
:0C023800648094B04040A81808C374B95A
:0E02440086F063F08095F04031C004C0059054
:0E025200000A120A8FAF82AE8315811581A8B3
:0C02600018088602E63395E0FBEA24D083
:0E026C00FAEB34FFFBEA2FFFEB3EFE8F048E11
:04027A00050201FE7A
:08027E00A81808B62C02800349
:030286000203C8A8
:0B028900E5182409F8E60846700DE5B2
:0C029400182405F8A60408A6050203A91A
:0C02A000E5182409F8B6010608B60002B3
:0202AC008003CD
:0302AE000203A99F
:0B02B100E5182407F8A60408A605E5E0
:0C02BC00182405F8C3740296E40896505C
:0402C8000302039D8D
:0C02CC00E5182405F8B6000608B600028C
:0202D800801C88
:0C02DA00E5182405F8B6010608B600027D
:0202E60080286E
:0C02E800E5182405F8B6024908B60045E8
:0202F400803454
:0E02F600C3741E9CE49D5009C3EC9473ED94F8
:0303040000403284
:09030700A81808080876018029F5
:0E031000C374219CE49D5009C3EC946DED94E0
:03031E0000401884
:09032100A8180808087601800FF5
:0C032A00C374FF9CE49D5007A81808084D
:0303360008760145
:0A033900A818080808E67054E5183B
:0C0343002404F8E675F003A4FE2400FF7B
:0A034F00E43400FAE5182405F886EE
:0C035900038F828A83EBF0EE2400FEE4A8
:0A0365003400FA8E828A83A3E518A3
:0D036F002407F8E6F0A308E6F075822B12D3
:06037C0009011200FFE57B
:0C038200182407F886028A821200F3E5B6
:07038E00182404F806801496
:08039500758266120901800C5B
:0C039D00A8180808760175826612090194
:0C03A900E4FCFDE5182409F8740126FAB4
:0C03B500E40836FBE5182409F874015A2E
:0703C100F60876000201FEC0
:0903C800A818080876010201FEE4
:0A03D100E5182404F88602E518245C
:0B03DB0009F8B6010608B60002800316
:0303E60002050409
:0A03E900A818087665E5182407F847
:0C03F300A60408A605E5182405F8C3744C
:0A03FF000296E4089650030204EB96
:0C040900E5182405F8B6000608B600024D
:02041500801C49
:0C041700E5182405F8B6010608B600023E
:0204230080282F
:0C042500E5182405F8B6024908B60045A9
:02043100803415
:0E043300C3741E9CE49D5009C3EC9473ED94B9
:0304410000403246
:09044400A81808080876018029B7
:0E044D00C374219CE49D5009C3EC946DED94A2
:03045B0000401846
:09045E00A8180808087601800FB7
:0C046700C374FF9CE49D5007A81808080F
:0304730008760107
:0C047600A818080808E67061EA75F00399
:0A048200A4FB2400FCE43400FDE5B7
:0C048C00182405F886068C828D83EEF0A3
:0A049800EB2400FBE43400FC8B822F
:0C04A2008C83A3E5182407F8E6F0A308FB
:0E04AE00E6F00AC0021200FFD00274302AF5F8
:0E04BC0082C0021200F37402C0E075820012CA
:0C04CA0000F01581E5182407F886820870
:0904D6008683120135D002801C5E
:0C04DF00758266C002120901D002801074
:0C04EB00A81808087601758266C002128D
:0404F7000901D00225
:0904FB00E5182409F8E4F608F6FE
:08050400A81808B66502801674
:0C050C00C0021200FF900DCA75F08012B2
:0A05180000F675826E120901D00290
:0B052200E5182409F8E608467065A8FB
:0A052D00180808E6705EA818080818
:0E05370008E6705674302AF582C002120901DF
:0C054500120936AB82D002A81808A603E9
:0C055100A81808B661167B00C002C003A9
:0E055D0090000075F0001206AB1581158102AA
:02056B0001A6E7
:0A056D00A81808B66E0F1200FF90E8
:090577000DD775F0801200F602A8
:0205800001A6D2
:0A0582001200FF900DEA75F08012E0
:05058C0000F60201A6CB
:0A0591001200FF900DF775F08012C4
:05059B0000F60201A6BC
:0805A000A81808B676028003DA
:0305A800020690B8
:0E05AB001200FF75820012010EAA82C002E447
:0E05B900C0E07582001200F01581D0028A8227
:0E05C700C0021200FCD0028A82C0021209019A
:0E05D500D0028A82120CCBAA82AB83ACF0FD5E
:0E05E300E4C0E0C0E0744CC0E07442C0E08AA6
:0E05F100828B838CF0ED120C08AA82AB83ACD7
:0E05FF00F0FDE58124FCF5817483C0E074C03A
:0E060D00C0E0744AC0E0743EC0E08A828B8375
:0E061B008CF0ED120971AA82AB83ACF0FDE504
:0E0629008124FCF58174D7C0E074A3C0E07496
:0E06370010C0E0743FC0E08A828B838CF0ED2F
:0E064500120C08AA82AB83ACF0FDE58124FC08
:0E065300F581C002C003C004C005E4C0E0751C
:0E06610082011200F0158190000075F0C8743F
:0E066F004212097CAA82AB83ACF0FDE5812427
:0E067D00FCF5818A828B838CF0ED120B8812C3
:05068B0001350201A68B
:0A0690001200FF900E0675F08012B4
:09069A0000F675826E12090102DE
:0606A30001A6851881D0BC
:0206A900182215
:0A06AB00C018858118C082C083C00A
:0C06B500F0E581240DF581E5182404F81F
:0806C100E4F608F67F007D005D
:0A06C900E5182404F8E51824FCF9F4
:0E06D300C3E69708E664800987F063F080951F
:0606E100F040030208BA1C
:0C06E700C005C0071200FFE5182404F84D
:0D06F300740126FEE40836FA8E828A831216
:090700000144900E1375F0801203
:0C07090000F6D007D005A81808EF26FA6B
:0E071500ED0836FB0886048A828B838CF01276
:0E0723000CD6FA7B008A828B83C005C00712B9
:090731000144900E1675F08012CF
:0A073A0000F6D007D005A81808E566
:0C074400182409F9EF26F7ED083609F734
:0A0750000809E6F7E5182409F8E5AA
:0C075A00182406F9740126F7E40836099B
:0C076600F70809E6F7C007C005E51824F5
:0E07720006F886820886830886F0120CD6FEF2
:0E078000A3120CD6FD8E828D83C005C0071219
:0C078E000144D007D005E5182406F886C9
:0D079A00820886830886F0120CD6FDA3129B
:0E07A7000CD6FE8D828E83120B93AD82AE8334
:0E07B500AFF0FAC007C005C006C007C0029032
:0E07C300A7F075F03A744112097CAA82AB834C
:0E07D100ACF0FDE58124FCF581D007C002C02C
:0E07DF0003C004C005C007740AC0E0758200A4
:0E07ED001200F01581D007D005D004D003D043
:0D07FB00028A828B838CF0EDC005C00712CE
:0C0808000B88C0E0E518240CF8D0E0A636
:0C0814008208A683E518240CF8868208F0
:0C0820008683120135D007D005E51824AE
:0E082C0009F886820886830886F0120CD6FC36
:05083A00BC0202800673
:06083F00D005D007803A4D
:0C084500D005D007A81808EF26FAED082F
:0E08510036FB0886048A828B838CF0120CD64C
:0C085F00FAC005C007E518240CF8E6C03C
:0E086B00E008E6C0E08A8212010B15811581BB
:06087900D007D005802627
:0C087F00E5182406F886820886830886A7
:0E088B00F0120CD6FAA3120CD6C005C007C09E
:0C089900028C821201081581D007D005E6
:0C08A50074032FFFE43DFDE5182404F867
:0608B10006B60002080675
:0308B7000206C96D
:0C08BA00758265120901758201851881A4
:0308C600D0182225
:0E08C9007449C0E07582001201081581744464
:0E08D700C0E075820112010815817449C0E06D
:0908E5007582021201081581223E
:0108EE0022E7
:0108EF0022E6
:0E0DAE00576172746520617566204B6F6E741C
:040DBC00616B7400F3
:0A0DC000636F6E6E65637465640076
:0D0DCA0050726F67722E6665686C6572006E
:0E0DD70045525220337761792068616E647353
:050DE50068616B650070
:0D0DEA00696C6C6567616C20636861720064
:0E0DF700726573656E6420636F6D6D616E646E
:010E050000EC
:0D0E060073796E20657277617274657400F7
:030E130020730049
:030E160020770042
:0E08F00075985075BA0375AAD9D2DF43878078
:0308FE00D299226A
:02090100AA82C8
:0509030010990280FBC9
:030908008A9922A7
:06090B00AA82AB83ACF0F0
:0E0911008A828B838CF0120CD6FD60180ABA15
:03091F0000010BC9
:0E0922008D82C002C003C004120901D004D0AF
:0509300003D00280DC91
:01093500229F
:0509360010980280FB97
:05093B00AA998A822246
:06094000AA82AB83ACF0BB
:0E094600C002C003C004120936AD82D004D036
:0E09540003D0028A828B838CF0ED120A76A308
:0B096200AA82AB83ED6007BD0A0122F2
:03096D00BD0DD6E7
:010970002264
:0B097100A8811818C6B2E7C6020B2FC1
:06097C00120A1FBC00037B
:03098200020BC0A5
:08098500EF60FA30D502B2D197
:08098D00E583B4FF03020BD661
:08099500E582B4FF03020BD65A
:0B099D00258340072482400B020BC0A2
:0809A8002483145003020BD656
:0E09B000F582EA8DF0A4A8F0EA8EF0A428F8F3
:0E09BE00E435F0F9EB8DF0A428E935F0F9E40A
:0E09CC0033CA8FF0A429F9EA35F0FAEBF88E61
:0E09DA00F0A429F9EA35F0FAE433FBEC8DF0D5
:0E09E800A429F9EA35F0FAE43BFBE88FF0A40D
:0E09F6002AFAEB35F0FBE433CCFD8EF0A42A98
:0E0A0400FAEB35F0FBE43CFCED8FF0A42BFB8D
:0A0A1200EC35F0FC20E703120A4D5A
:030A1C00020B9F2B
:0D0A1F00AA82AB83A2F73392D16002D2F716
:0E0A2C00F582ACF0E58124F9F8E6FD08E6FE5F
:0E0A3A000886F008E6A2F73392D56002D2F7E4
:050A4800F583AFF02270
:06008500E478FFF6D8FD4F
:020A4D0078042B
:0E0A4F00EC700DC9CACBFCE58224F8F582D804
:020A5D00F12284
:020A5F007820FD
:0E0A610020E7111582C3E933F9EA33FAEB33CB
:060A6F00FBEC33FCD8ECA7
:010A7500225E
:080063007900E94400601B7AFA
:05006B0000900E197861
:030070009675A0E2
:0A00730000E493F2A308B8000205B0
:08007D00A0D9F4DAF275A0FF2E
:0E0A760020F71030F6118883A88220F507F6CD
:050A8400A8837583004A
:010A8900224A
:030A8A00F280F700
:020A8D00F02255
:0A0A8F00C018858118C082C083E5FD
:0A0A9900812407F581AA180AA818A5
:0C0AA300080808A602087600087640E566
:0B0AAF001824FCFD8D027B007C40E55C
:0A0ABA00182406F8A9180909098795
:0E0AC400820987830987F0120CD6FD8A828B87
:0E0AD200838CF0120CD6FE8DF0A4F608A6F070
:0C0AE000E518240604F886070ABA000195
:010AEC000BFE
:0E0AED008A828B838CF0120CD68DF0A4FDA9AA
:0C0AFB0018090909740127FAE40937FB07
:0E0B07000987048A828B838CF0120CD6FA8A3E
:0C0B1500F0EEA42D2FF6E5182406F8865B
:0C0B2100020886038A828B83851881D02D
:020B2D0018228C
:030B2F00120A1F88
:090B32007900E583B58202800D13
:050B3B005003120BEE57
:080B4000E583C39582120D0547
:080B4800E5D0C465D020E117DF
:0E0B5000EA2DFAEB3EFBEC3FFC50097401125B
:060B5E000D05EC4480FCD3
:030B6400020B9FE2
:0E0B6700C3EA9DFAEB9EFBEC9FFC500FC3E42B
:0D0B750099F9E49AFAE49BFBE49CFCB2D1F0
:060B8200120A4D020B9F58
:04008B0075A00078E4
:07008F0000E844006007795E
:0600960000E4F309D8FCB0
:08009C007896E84400600C793D
:0B00A40001900000E4F0A3D8FCD9FAA2
:0B0B88007F8E120D4EF58385F0822257
:0C0B9300E4AC83AB82FAF9748E020CFB18
:060B9F00B98003EA13B364
:0E0BA5004010EA2401FAE43BFBE43CFC50045F
:040BB3007C800582BB
:090BB700BC000EBB000BBA0008E3
:080BC000E4F5F0F583F5822253
:0E0BC800A2D1E582138CF092F78B838A8222F1
:0D0BD600E4F583F58275F080F4A2D11322BE
:0B0BE300E4F583F58275F0C0747F22FA
:0E0BEE00E582C583F582A2D133A2D592D11340
:0C0BFC0092D5ECCFFCEBCEFBEACDFA2248
:080C0800120A1F30D502B2D11F
:090C1000BF0009BC0003020BE364
:030C1900020BD6F5
:060C1C00BC0003020BC046
:0D0C2200E583B4FF0BE582B4FF03020BE392
:030C2F00020BC0F5
:080C3200E582B4FF03020BD6BA
:0C0C3A00C395835007247F400B020BC0C1
:080C46002480145003020BD6B8
:0E0C4E00F582C3ED9AEE9BEF9C40111582C318
:0E0C5C00EA33F9EB33FAEC33FBE433FC8005AA
:050C6A00E4CCCBCAF947
:050C6F00C08275F019C0
:0E0C7400C3E99DEA9EEB9FEC9400D5F0028050
:010C82002D44
:0E0C8300400EE99DF9EA9EFAEB9FFBEC94000F
:020C9100FCC3A2
:0E0C9300B3E833F8E58233F582E58333F58369
:0E0CA100C3E933F9EA33FAEB33FBEC33FC80A2
:010CAF00C480
:0E0CB000B3E4F938FAE43582FBE43583FCD076
:070CBE0082500405827C80D6
:060CC500120A4D020BB7FC
:0300560075811899
:0A005900120D48E58260030200B2B8
:0B0CCB00E4AC82FBFAF97486020CFB1B
:0E0CD60020F71430F6148883A88220F507E674
:060CE400A88375830022C5
:030CEA00E280F7AE
:030CED00E493226B
:020CF000E02200
:090CF200FCABF0AA83A982749EF8
:020CFB00C2D164
:080CFD00F582120A4D020B9F63
:090D05006040F82582500274FFE1
:0E0D0E00F582E824F8501ECCCBCAF9E4CC24C0
:0E0D1C00F85014CBCAF9E4CB24F8500BCAF9F6
:090D2A00E4CA24F8500379002208
:050D330024086010F827
:0E0D3800C3EC13FCEB13FBEA13FAE913F9D832
:010D4600F1BB
:010D47002289
:040D4800758200228E
:020D4C007F9E88
:090D4E00120D7330D103020BC039
:0E0D5700C3EF9582500974FFF5F0F583F58225
:010D6500226B
:050D66007900120D05EB
:080D6B0089828A838BF0EC22DF
:0D0D7300AA82AB83A2F73392D16002D2F7BF
:050D8000F582ACF02239
:00000001FF
